{
  "contractName": "CarOrder",
  "abi": [
    {
      "constant": true,
      "inputs": [],
      "name": "minter",
      "outputs": [
        {
          "name": "",
          "type": "address"
        }
      ],
      "payable": false,
      "stateMutability": "view",
      "type": "function"
    },
    {
      "constant": true,
      "inputs": [
        {
          "name": "",
          "type": "address"
        }
      ],
      "name": "scoreList",
      "outputs": [
        {
          "name": "score",
          "type": "uint256"
        },
        {
          "name": "number",
          "type": "uint256"
        }
      ],
      "payable": false,
      "stateMutability": "view",
      "type": "function"
    },
    {
      "constant": true,
      "inputs": [
        {
          "name": "",
          "type": "address"
        },
        {
          "name": "",
          "type": "uint256"
        }
      ],
      "name": "personalorderList",
      "outputs": [
        {
          "name": "",
          "type": "bytes32"
        }
      ],
      "payable": false,
      "stateMutability": "view",
      "type": "function"
    },
    {
      "constant": true,
      "inputs": [
        {
          "name": "",
          "type": "bytes32"
        }
      ],
      "name": "orderList",
      "outputs": [
        {
          "name": "sender",
          "type": "address"
        },
        {
          "name": "recipient",
          "type": "address"
        },
        {
          "name": "start",
          "type": "string"
        },
        {
          "name": "destination",
          "type": "string"
        },
        {
          "name": "amount",
          "type": "uint256"
        },
        {
          "name": "score",
          "type": "uint256"
        },
        {
          "name": "timestamp",
          "type": "string"
        }
      ],
      "payable": false,
      "stateMutability": "view",
      "type": "function"
    },
    {
      "inputs": [],
      "payable": false,
      "stateMutability": "nonpayable",
      "type": "constructor"
    },
    {
      "constant": false,
      "inputs": [
        {
          "name": "_start",
          "type": "string"
        },
        {
          "name": "_destination",
          "type": "string"
        },
        {
          "name": "_amount",
          "type": "uint256"
        },
        {
          "name": "_score",
          "type": "uint256"
        },
        {
          "name": "_timestamp",
          "type": "string"
        },
        {
          "name": "_recipient",
          "type": "address"
        }
      ],
      "name": "PushOrder",
      "outputs": [],
      "payable": false,
      "stateMutability": "nonpayable",
      "type": "function"
    },
    {
      "constant": true,
      "inputs": [
        {
          "name": "_start",
          "type": "string"
        },
        {
          "name": "_destination",
          "type": "string"
        },
        {
          "name": "_amount",
          "type": "uint256"
        },
        {
          "name": "_score",
          "type": "uint256"
        },
        {
          "name": "_timestamp",
          "type": "string"
        },
        {
          "name": "_recipient",
          "type": "address"
        }
      ],
      "name": "getOrderIndex",
      "outputs": [
        {
          "name": "",
          "type": "bytes32"
        }
      ],
      "payable": false,
      "stateMutability": "view",
      "type": "function"
    },
    {
      "constant": false,
      "inputs": [
        {
          "name": "_recipient",
          "type": "address"
        }
      ],
      "name": "clearScore",
      "outputs": [],
      "payable": false,
      "stateMutability": "nonpayable",
      "type": "function"
    }
  ],
  "bytecode": "0x608060405234801561001057600080fd5b50336000806101000a81548173ffffffffffffffffffffffffffffffffffffffff021916908373ffffffffffffffffffffffffffffffffffffffff160217905550611253806100606000396000f300608060405260043610610083576000357c0100000000000000000000000000000000000000000000000000000000900463ffffffff168063075461721461008857806309b02ddd146100df5780631c3277471461013d578063449116111461026657806345c8bcb0146102a95780636af6400d14610312578063972d2f8514610508575b600080fd5b34801561009457600080fd5b5061009d61064d565b604051808273ffffffffffffffffffffffffffffffffffffffff1673ffffffffffffffffffffffffffffffffffffffff16815260200191505060405180910390f35b3480156100eb57600080fd5b50610120600480360381019080803573ffffffffffffffffffffffffffffffffffffffff169060200190929190505050610672565b604051808381526020018281526020019250505060405180910390f35b34801561014957600080fd5b50610264600480360381019080803590602001908201803590602001908080601f0160208091040260200160405190810160405280939291908181526020018383808284378201915050505050509192919290803590602001908201803590602001908080601f01602080910402602001604051908101604052809392919081815260200183838082843782019150505050505091929192908035906020019092919080359060200190929190803590602001908201803590602001908080601f0160208091040260200160405190810160405280939291908181526020018383808284378201915050505050509192919290803573ffffffffffffffffffffffffffffffffffffffff169060200190929190505050610696565b005b34801561027257600080fd5b506102a7600480360381019080803573ffffffffffffffffffffffffffffffffffffffff169060200190929190505050610c62565b005b3480156102b557600080fd5b506102f4600480360381019080803573ffffffffffffffffffffffffffffffffffffffff16906020019092919080359060200190929190505050610d13565b60405180826000191660001916815260200191505060405180910390f35b34801561031e57600080fd5b506103416004803603810190808035600019169060200190929190505050610d43565b604051808873ffffffffffffffffffffffffffffffffffffffff1673ffffffffffffffffffffffffffffffffffffffff1681526020018773ffffffffffffffffffffffffffffffffffffffff1673ffffffffffffffffffffffffffffffffffffffff168152602001806020018060200186815260200185815260200180602001848103845289818151815260200191508051906020019080838360005b838110156103f95780820151818401526020810190506103de565b50505050905090810190601f1680156104265780820380516001836020036101000a031916815260200191505b50848103835288818151815260200191508051906020019080838360005b8381101561045f578082015181840152602081019050610444565b50505050905090810190601f16801561048c5780820380516001836020036101000a031916815260200191505b50848103825285818151815260200191508051906020019080838360005b838110156104c55780820151818401526020810190506104aa565b50505050905090810190601f1680156104f25780820380516001836020036101000a031916815260200191505b509a505050505050505050505060405180910390f35b34801561051457600080fd5b5061062f600480360381019080803590602001908201803590602001908080601f0160208091040260200160405190810160405280939291908181526020018383808284378201915050505050509192919290803590602001908201803590602001908080601f01602080910402602001604051908101604052809392919081815260200183838082843782019150505050505091929192908035906020019092919080359060200190929190803590602001908201803590602001908080601f0160208091040260200160405190810160405280939291908181526020018383808284378201915050505050509192919290803573ffffffffffffffffffffffffffffffffffffffff169060200190929190505050610f8d565b60405180826000191660001916815260200191505060405180910390f35b6000809054906101000a900473ffffffffffffffffffffffffffffffffffffffff1681565b60026020528060005260406000206000915090508060000154908060010154905082565b6000600233838989898989604051808873ffffffffffffffffffffffffffffffffffffffff1673ffffffffffffffffffffffffffffffffffffffff166c010000000000000000000000000281526014018773ffffffffffffffffffffffffffffffffffffffff1673ffffffffffffffffffffffffffffffffffffffff166c0100000000000000000000000002815260140186805190602001908083835b6020831015156107585780518252602082019150602081019050602083039250610733565b6001836020036101000a03801982511681845116808217855250505050505090500185805190602001908083835b6020831015156107ab5780518252602082019150602081019050602083039250610786565b6001836020036101000a03801982511681845116808217855250505050505090500184815260200183815260200182805190602001908083835b60208310151561080a57805182526020820191506020810190506020830392506107e5565b6001836020036101000a0380198251168184511680821785525050505050509050019750505050505050506020604051808303816000865af1158015610854573d6000803e3d6000fd5b5050506040513d602081101561086957600080fd5b8101908080519060200190929190505050905060e0604051908101604052803373ffffffffffffffffffffffffffffffffffffffff1681526020018373ffffffffffffffffffffffffffffffffffffffff1681526020018881526020018781526020018681526020018581526020018481525060016000836000191660001916815260200190815260200160002060008201518160000160006101000a81548173ffffffffffffffffffffffffffffffffffffffff021916908373ffffffffffffffffffffffffffffffffffffffff16021790555060208201518160010160006101000a81548173ffffffffffffffffffffffffffffffffffffffff021916908373ffffffffffffffffffffffffffffffffffffffff16021790555060408201518160020190805190602001906109a1929190611182565b5060608201518160030190805190602001906109be929190611182565b506080820151816004015560a0820151816005015560c08201518160060190805190602001906109ef929190611182565b5090505060408051908101604052806001600260008673ffffffffffffffffffffffffffffffffffffffff1673ffffffffffffffffffffffffffffffffffffffff168152602001908152602001600020600101540186600260008773ffffffffffffffffffffffffffffffffffffffff1673ffffffffffffffffffffffffffffffffffffffff16815260200190815260200160002060010154600260008873ffffffffffffffffffffffffffffffffffffffff1673ffffffffffffffffffffffffffffffffffffffff168152602001908152602001600020600001540201811515610ad657fe5b0481526020016001600260008673ffffffffffffffffffffffffffffffffffffffff1673ffffffffffffffffffffffffffffffffffffffff1681526020019081526020016000206001015401815250600260008473ffffffffffffffffffffffffffffffffffffffff1673ffffffffffffffffffffffffffffffffffffffff1681526020019081526020016000206000820151816000015560208201518160010155905050600360003373ffffffffffffffffffffffffffffffffffffffff1673ffffffffffffffffffffffffffffffffffffffff168152602001908152602001600020819080600181540180825580915050906001820390600052602060002001600090919290919091509060001916905550600360008373ffffffffffffffffffffffffffffffffffffffff1673ffffffffffffffffffffffffffffffffffffffff16815260200190815260200160002081908060018154018082558091505090600182039060005260206000200160009091929091909150906000191690555050505050505050565b6000809054906101000a900473ffffffffffffffffffffffffffffffffffffffff1673ffffffffffffffffffffffffffffffffffffffff163373ffffffffffffffffffffffffffffffffffffffff16141515610cbd57610d10565b600260008273ffffffffffffffffffffffffffffffffffffffff1673ffffffffffffffffffffffffffffffffffffffff168152602001908152602001600020600080820160009055600182016000905550505b50565b600360205281600052604060002081815481101515610d2e57fe5b90600052602060002001600091509150505481565b60016020528060005260406000206000915090508060000160009054906101000a900473ffffffffffffffffffffffffffffffffffffffff16908060010160009054906101000a900473ffffffffffffffffffffffffffffffffffffffff1690806002018054600181600116156101000203166002900480601f016020809104026020016040519081016040528092919081815260200182805460018160011615610100020316600290048015610e3b5780601f10610e1057610100808354040283529160200191610e3b565b820191906000526020600020905b815481529060010190602001808311610e1e57829003601f168201915b505050505090806003018054600181600116156101000203166002900480601f016020809104026020016040519081016040528092919081815260200182805460018160011615610100020316600290048015610ed95780601f10610eae57610100808354040283529160200191610ed9565b820191906000526020600020905b815481529060010190602001808311610ebc57829003601f168201915b505050505090806004015490806005015490806006018054600181600116156101000203166002900480601f016020809104026020016040519081016040528092919081815260200182805460018160011615610100020316600290048015610f835780601f10610f5857610100808354040283529160200191610f83565b820191906000526020600020905b815481529060010190602001808311610f6657829003601f168201915b5050505050905087565b600080600233848a8a8a8a8a604051808873ffffffffffffffffffffffffffffffffffffffff1673ffffffffffffffffffffffffffffffffffffffff166c010000000000000000000000000281526014018773ffffffffffffffffffffffffffffffffffffffff1673ffffffffffffffffffffffffffffffffffffffff166c0100000000000000000000000002815260140186805190602001908083835b602083101515611050578051825260208201915060208101905060208303925061102b565b6001836020036101000a03801982511681845116808217855250505050505090500185805190602001908083835b6020831015156110a3578051825260208201915060208101905060208303925061107e565b6001836020036101000a03801982511681845116808217855250505050505090500184815260200183815260200182805190602001908083835b60208310151561110257805182526020820191506020810190506020830392506110dd565b6001836020036101000a0380198251168184511680821785525050505050509050019750505050505050506020604051808303816000865af115801561114c573d6000803e3d6000fd5b5050506040513d602081101561116157600080fd5b81019080805190602001909291905050509050809150509695505050505050565b828054600181600116156101000203166002900490600052602060002090601f016020900481019282601f106111c357805160ff19168380011785556111f1565b828001600101855582156111f1579182015b828111156111f05782518255916020019190600101906111d5565b5b5090506111fe9190611202565b5090565b61122491905b80821115611220576000816000905550600101611208565b5090565b905600a165627a7a72305820b38b4079a855099ec1ee7dd82a50ef95ff5f8cfd8f7b00d8fbf2aab1a8738f6d0029",
  "source": "pragma solidity ^0.4.17;\n\n\ncontract CarOrder{\n    address public minter;\n\tstruct Order{\n\t\taddress sender;\n\t\taddress recipient;\n\t\tstring start;\n\t\tstring destination;\n\t\tuint256 amount;\n\t\tuint256 score;\n\t\tstring timestamp;\n\t}\n\n\tstruct Score{\n\t\tuint256 score;\n\t\tuint256 number;\n\t}\n\n\tmapping(bytes32 => Order) public orderList;\n\tmapping(address => Score) public scoreList;\n\tmapping(address => bytes32[]) public personalorderList;\n\n    constructor() public {\n        minter = msg.sender;\n    }\n\n\tfunction PushOrder(string _start, string _destination, uint256 _amount, uint256 _score, string _timestamp, address _recipient) public {\n\t\tbytes32 orderHash;\n\t\torderHash = sha256(msg.sender, _recipient, _start, _destination, _amount, _score, _timestamp);\n\t\torderList[orderHash] = Order(msg.sender, _recipient, _start, _destination, _amount, _score, _timestamp);\n\t\tscoreList[_recipient] = Score((scoreList[_recipient].score * scoreList[_recipient].number + _score) / (scoreList[_recipient].number + uint256(1)), (scoreList[_recipient].number + uint256(1)));\n\t    personalorderList[msg.sender].push(orderHash);\n\t    personalorderList[_recipient].push(orderHash);\n\t}\n\n\tfunction getOrderIndex(string _start, string _destination, uint256 _amount, uint256 _score, string _timestamp, address _recipient) public view returns (bytes32) {\n\t\tbytes32 OrderIndex;\n\t\tOrderIndex = sha256(msg.sender, _recipient, _start, _destination, _amount, _score, _timestamp);\n\t\treturn OrderIndex;\n\t}\n\n\tfunction clearScore(address _recipient) public {\n\t    if(msg.sender != minter) return;\n\t    delete scoreList[_recipient];\n\t}\n\n}",
  "sourcePath": "/Users/gx/大三下/信安竞赛/GoGoCar/GoGoCar-webpack/contracts/CarOrder.sol",
  "compiler": {
    "name": "solc",
    "version": "0.4.23+commit.124ca40d.Emscripten.clang"
  },
  "schemaVersion": "2.0.0",
  "updatedAt": "2018-05-25T04:50:23.945Z"
}