{
  "contractName": "Order",
  "abi": [
    {
      "constant": true,
      "inputs": [
        {
          "name": "",
          "type": "address"
        }
      ],
      "name": "balances",
      "outputs": [
        {
          "name": "",
          "type": "uint256"
        }
      ],
      "payable": false,
      "stateMutability": "view",
      "type": "function"
    },
    {
      "constant": true,
      "inputs": [
        {
          "name": "",
          "type": "uint256"
        }
      ],
      "name": "order_list",
      "outputs": [
        {
          "name": "sender",
          "type": "address"
        },
        {
          "name": "recipient",
          "type": "address"
        },
        {
          "name": "start",
          "type": "string"
        },
        {
          "name": "destination",
          "type": "string"
        },
        {
          "name": "amount",
          "type": "uint256"
        }
      ],
      "payable": false,
      "stateMutability": "view",
      "type": "function"
    },
    {
      "inputs": [],
      "payable": false,
      "stateMutability": "nonpayable",
      "type": "constructor"
    },
    {
      "constant": false,
      "inputs": [
        {
          "name": "recipient",
          "type": "address"
        },
        {
          "name": "start",
          "type": "string"
        },
        {
          "name": "destination",
          "type": "string"
        },
        {
          "name": "amount",
          "type": "uint256"
        }
      ],
      "name": "sendCoin",
      "outputs": [
        {
          "name": "",
          "type": "bool"
        }
      ],
      "payable": false,
      "stateMutability": "nonpayable",
      "type": "function"
    },
    {
      "constant": true,
      "inputs": [
        {
          "name": "addr",
          "type": "address"
        }
      ],
      "name": "getBalance",
      "outputs": [
        {
          "name": "",
          "type": "uint256"
        }
      ],
      "payable": false,
      "stateMutability": "view",
      "type": "function"
    },
    {
      "constant": true,
      "inputs": [],
      "name": "getLastOrder",
      "outputs": [
        {
          "name": "",
          "type": "address"
        },
        {
          "name": "",
          "type": "address"
        },
        {
          "name": "",
          "type": "string"
        },
        {
          "name": "",
          "type": "string"
        },
        {
          "name": "",
          "type": "uint256"
        }
      ],
      "payable": false,
      "stateMutability": "view",
      "type": "function"
    }
  ],
  "bytecode": "0x60806040526103e860005534801561001657600080fd5b50600054600260003373ffffffffffffffffffffffffffffffffffffffff1673ffffffffffffffffffffffffffffffffffffffff16815260200190815260200160002081905550610d388061006c6000396000f30060806040526004361061006d576000357c0100000000000000000000000000000000000000000000000000000000900463ffffffff16806327e235e31461007257806353e21792146100c9578063a404a335146101ba578063a7c3e3be14610323578063f8b2cb4f146104a2575b600080fd5b34801561007e57600080fd5b506100b3600480360381019080803573ffffffffffffffffffffffffffffffffffffffff1690602001909291905050506104f9565b6040518082815260200191505060405180910390f35b3480156100d557600080fd5b506101a0600480360381019080803573ffffffffffffffffffffffffffffffffffffffff169060200190929190803590602001908201803590602001908080601f0160208091040260200160405190810160405280939291908181526020018383808284378201915050505050509192919290803590602001908201803590602001908080601f016020809104026020016040519081016040528093929190818152602001838380828437820191505050505050919291929080359060200190929190505050610511565b604051808215151515815260200191505060405180910390f35b3480156101c657600080fd5b506101cf61076c565b604051808673ffffffffffffffffffffffffffffffffffffffff1673ffffffffffffffffffffffffffffffffffffffff1681526020018573ffffffffffffffffffffffffffffffffffffffff1673ffffffffffffffffffffffffffffffffffffffff1681526020018060200180602001848152602001838103835286818151815260200191508051906020019080838360005b8381101561027d578082015181840152602081019050610262565b50505050905090810190601f1680156102aa5780820380516001836020036101000a031916815260200191505b50838103825285818151815260200191508051906020019080838360005b838110156102e35780820151818401526020810190506102c8565b50505050905090810190601f1680156103105780820380516001836020036101000a031916815260200191505b5097505050505050505060405180910390f35b34801561032f57600080fd5b5061034e60048036038101908080359060200190929190505050610a0d565b604051808673ffffffffffffffffffffffffffffffffffffffff1673ffffffffffffffffffffffffffffffffffffffff1681526020018573ffffffffffffffffffffffffffffffffffffffff1673ffffffffffffffffffffffffffffffffffffffff1681526020018060200180602001848152602001838103835286818151815260200191508051906020019080838360005b838110156103fc5780820151818401526020810190506103e1565b50505050905090810190601f1680156104295780820380516001836020036101000a031916815260200191505b50838103825285818151815260200191508051906020019080838360005b83811015610462578082015181840152602081019050610447565b50505050905090810190601f16801561048f5780820380516001836020036101000a031916815260200191505b5097505050505050505060405180910390f35b3480156104ae57600080fd5b506104e3600480360381019080803573ffffffffffffffffffffffffffffffffffffffff169060200190929190505050610bc2565b6040518082815260200191505060405180910390f35b60026020528060005260406000206000915090505481565b600061051b610c0b565b82600260003373ffffffffffffffffffffffffffffffffffffffff1673ffffffffffffffffffffffffffffffffffffffff16815260200190815260200160002054101561056b5760009150610763565b82600260003373ffffffffffffffffffffffffffffffffffffffff1673ffffffffffffffffffffffffffffffffffffffff1681526020019081526020016000206000828254039250508190555082600260008873ffffffffffffffffffffffffffffffffffffffff1673ffffffffffffffffffffffffffffffffffffffff1681526020019081526020016000206000828254019250508190555060a0604051908101604052803373ffffffffffffffffffffffffffffffffffffffff1681526020018773ffffffffffffffffffffffffffffffffffffffff1681526020018681526020018581526020018481525090506001819080600181540180825580915050906001820390600052602060002090600502016000909192909190915060008201518160000160006101000a81548173ffffffffffffffffffffffffffffffffffffffff021916908373ffffffffffffffffffffffffffffffffffffffff16021790555060208201518160010160006101000a81548173ffffffffffffffffffffffffffffffffffffffff021916908373ffffffffffffffffffffffffffffffffffffffff1602179055506040820151816002019080519060200190610733929190610c67565b506060820151816003019080519060200190610750929190610c67565b5060808201518160040155505050600191505b50949350505050565b60008060608060008060018054905011156109c95760018080805490500381548110151561079657fe5b906000526020600020906005020160000160009054906101000a900473ffffffffffffffffffffffffffffffffffffffff166001808080549050038154811015156107dd57fe5b906000526020600020906005020160010160009054906101000a900473ffffffffffffffffffffffffffffffffffffffff1660018080805490500381548110151561082457fe5b906000526020600020906005020160020160018080805490500381548110151561084a57fe5b906000526020600020906005020160030160018080805490500381548110151561087057fe5b906000526020600020906005020160040154828054600181600116156101000203166002900480601f0160208091040260200160405190810160405280929190818152602001828054600181600116156101000203166002900480156109175780601f106108ec57610100808354040283529160200191610917565b820191906000526020600020905b8154815290600101906020018083116108fa57829003601f168201915b50505050509250818054600181600116156101000203166002900480601f0160208091040260200160405190810160405280929190818152602001828054600181600116156101000203166002900480156109b35780601f10610988576101008083540402835291602001916109b3565b820191906000526020600020905b81548152906001019060200180831161099657829003601f168201915b5050505050915094509450945094509450610a06565b6000806000829250819150602060405190810160405280600081525090602060405190810160405280600081525090809050945094509450945094505b9091929394565b600181815481101515610a1c57fe5b90600052602060002090600502016000915090508060000160009054906101000a900473ffffffffffffffffffffffffffffffffffffffff16908060010160009054906101000a900473ffffffffffffffffffffffffffffffffffffffff1690806002018054600181600116156101000203166002900480601f016020809104026020016040519081016040528092919081815260200182805460018160011615610100020316600290048015610b145780601f10610ae957610100808354040283529160200191610b14565b820191906000526020600020905b815481529060010190602001808311610af757829003601f168201915b505050505090806003018054600181600116156101000203166002900480601f016020809104026020016040519081016040528092919081815260200182805460018160011615610100020316600290048015610bb25780601f10610b8757610100808354040283529160200191610bb2565b820191906000526020600020905b815481529060010190602001808311610b9557829003601f168201915b5050505050908060040154905085565b6000600260008373ffffffffffffffffffffffffffffffffffffffff1673ffffffffffffffffffffffffffffffffffffffff168152602001908152602001600020549050919050565b60a060405190810160405280600073ffffffffffffffffffffffffffffffffffffffff168152602001600073ffffffffffffffffffffffffffffffffffffffff1681526020016060815260200160608152602001600081525090565b828054600181600116156101000203166002900490600052602060002090601f016020900481019282601f10610ca857805160ff1916838001178555610cd6565b82800160010185558215610cd6579182015b82811115610cd5578251825591602001919060010190610cba565b5b509050610ce39190610ce7565b5090565b610d0991905b80821115610d05576000816000905550600101610ced565b5090565b905600a165627a7a7230582082df0bc61a7d4d508e847358016c2bbf8e691381ecb1c35aa7664733300dd78e0029",
  "source": "pragma solidity ^0.4.17;\n\nimport \"./ConvertLib.sol\";\n\ncontract Order{\n    uint INITAL_SUPPLY = 1000;\n    struct order {\n        address sender;\n        address recipient;\n        string start;\n        string destination;\n        uint amount;\n    }\n    order[] public order_list;\n    mapping (address => uint) public balances;\n\n    constructor() public {\n        balances[msg.sender] = INITAL_SUPPLY;\n    }\n\n    function sendCoin(address recipient, string start, string destination, uint amount) public returns(bool){\n        if (balances[msg.sender] < amount) return false;\n        balances[msg.sender] -= amount;\n        balances[recipient] += amount;\n        order memory o = order(msg.sender, recipient, start, destination, amount); \n        order_list.push(o);\n        return true;\n    }\n    \n    function getBalance(address addr) public view returns(uint) {\n        return balances[addr];\n    }\n\n    function getLastOrder() public view returns(address, address, string, string, uint) {\n        if (order_list.length > 0)\n            return (order_list[order_list.length - 1].sender, order_list[order_list.length - 1].recipient, order_list[order_list.length - 1].start, order_list[order_list.length - 1].destination, order_list[order_list.length - 1].amount);\n        return (0x0, 0x0, \"\", \"\", 0);\n    }\n\n}\n",
  "sourcePath": "/Users/gx/大三下/信安竞赛/webpack/contracts/Order.sol",
  "compiler": {
    "name": "solc",
    "version": "0.4.23+commit.124ca40d.Emscripten.clang"
  },
  "schemaVersion": "2.0.0",
  "updatedAt": "2018-05-09T13:02:11.758Z"
}